:100000000C9430000C94CF030C94CF030C94CF03CA
:100010000C94CF030C94CF030C94CF030C94570291
:100020000C94CF030C94CF030C94CF030C94CF0308
:100030000C94CF030C94CF030C94CF030C94CF03F8
:100040000C94CF030C94CF030C94CF030C94CF03E8
:100050000C94CF030060006480006400670007A672
:1000600011241FBECFE5D8E0DEBFCDBFE4E5F0E050
:1000700040E017C0B591A59135912591059107FDF7
:100080000CC095918591EF01F92FE82F05900D9205
:10009000A217B307D9F7FE0104C01D92A217B30738
:1000A000E1F7E036F40731F70E945A000C9458004B
:0400B000F894FFCFF2
:1000B4000E9481030E94C0030E94A4037894E091EB
:1000C4006400F091650080916000808300E010E09E
:1000D4000E940303809360000E947703EC01E09187
:1000E4006400F091650080810E9438030C171D079D
:1000F40009F44EC0C11583E0D807C9F480916100AA
:1001040081110CC00E94B00386E690E090936500D4
:100114008093640083E00E94BE0202C00E94B40384
:1001240081E090916100911180E080936100809161
:100134006100813051F5CB3A82E0D80781F4809197
:100144006600853518F48B5F8093660086E690E040
:10015400909365008093640083E00E94BE02C11501
:1001640082E0D807A1F480916600843218F08550AB
:100174008093660086E690E0909365008093640027
:1001840083E00E94BE028E0103C08E0101C08E0175
:1001940080916100813049F4909160008091660003
:1001A400981718F40E94B80393CF0E94BC0390CF11
:1001B40010C00E94960358F00E948F0340F029F467
:1001C4005F3F29F00C94AA0351110C949E030C94E4
:1001D400CC030E94E10268F39923B1F3552391F310
:1001E400951B550BBB27AA2762177307840738F0A2
:1001F4009F5F5F4F220F331F441FAA1FA9F335D0FF
:100204000E2E3AF0E0E832D091505040E695001CB2
:10021400CAF72BD0FE2F29D0660F771F881FBB1F6C
:10022400261737074807AB07B0E809F0BB0B802D4A
:10023400BF01FF2793585F4F3AF09E3F510578F076
:100244000C94AA030C949E035F3FE4F3983ED4F30A
:10025400869577956795B795F7959F5FC9F7880F4A
:10026400911D9695879597F90895E1E0660F771F9C
:10027400881FBB1F621773078407BA0720F0621B2D
:0E028400730B840BBA0BEE1F88F7E0950895FC
:100292000FC00E948F0338F00E94960320F095232E
:1002A20011F00C94AA030C94CC0311240C949E0319
:1002B2000E94E10270F3959FC1F3950F50E0551F24
:1002C200629FF001729FBB27F00DB11D639FAA27A9
:1002D200F00DB11DAA1F649F6627B00DA11D661FF8
:1002E200829F2227B00DA11D621F739FB00DA11D19
:1002F200621F839FA00D611D221F749F3327A00DD3
:10030200611D231F849F600D211D822F762F6A2F6E
:1003120011249F5750409AF0F1F088234AF0EE0FD3
:10032200FF1FBB1F661F771F881F91505040A9F700
:100332009E3F510580F00C94AA030C949E035F3FEC
:10034200E4F3983ED4F3869577956795B795F7953C
:10035200E7959F5FC1F7FE2B880F911D96958795B4
:0403620097F908956A
:1003660011C00E948F0338F00E94960320F039F4E2
:100376009F3F19F426F40C94CC030EF4E095E7FBAA
:100386000C94AA03E92F0E94E10258F3BA176207F8
:1003960073078407950720F079F4A6F50C949D035E
:1003A6000EF4E0950B2EBA2FA02D0B01B90190018A
:1003B6000C01CA01A0011124FF27591B99F0593FCE
:1003C60050F4503E68F11A16F040A22F232F342F16
:1003D6004427585FF3CF469537952795A795F04064
:1003E6005395C9F77EF41F16BA0B620B730B840B79
:1003F600BAF09150A1F0FF0FBB1F661F771F881F31
:10040600C2F70EC0BA0F621F731F841F48F4879588
:1004160077956795B795F7959E3F08F0B0CF93957A
:0E042600880F08F09927EE0F97958795089597
:10043400E89409C097FB3EF490958095709561957A
:100444007F4F8F4F9F4F9923A9F0F92F96E9BB2730
:100454009395F695879577956795B795F111F8CFAC
:10046400FAF4BB0F11F460FF1BC06F5F7F4F8F4F17
:100474009F4F16C0882311F096E911C0772321F00D
:100484009EE8872F762F05C0662371F096E8862FA5
:1004940070E060E02AF09A95660F771F881FDAF7FC
:0A04A400880F9695879597F9089543
:1004AE001F920F920FB60F9211242F933F934F93DB
:1004BE005F936F937F938F939F93AF93BF93EF93BE
:1004CE00FF9380E690E0909365008093640081E056
:1004DE0090E02091620030916300232B11F080E0B8
:1004EE0090E090936300809362000E94D103FF918D
:1004FE00EF91BF91AF919F918F917F916F915F918E
:10050E004F913F912F910F900FBE0F901F90189506
:10051E000E94E90288F09F5798F0B92F9927B7519A
:10052E00B0F0E1F0660F771F881F991F1AF0BA9589
:10053E00C9F714C0B13091F00E949D03B1E0089547
:10054E000C949D03672F782F8827B85F39F0B93F39
:10055E00CCF3869577956795B395D9F73EF490953C
:0E056E008095709561957F4F8F4F9F4F089538
:10057C001DBC1CBC9FB598609FBD9EB595609EBD73
:10058C009EB598609EBDA82FB0E020E432E44FE009
:10059C0050E00E946C03462F572F682F792F032EA3
:1005AC003AE075956795579547953A95D1F7302D63
:0605BC005BBD4ABD08957D
:1005C20057FD9058440F551F59F05F3F71F0479502
:1005D200880F97FB991F61F09F3F79F087950895E7
:1005E200121613061406551FF2CF4695F1DF08C006
:1005F200161617061806991FF1CF86957105610523
:0406020008940895BB
:1006060081E00E942103BC0180E090E00E941A0272
:1006160026EF38E24CE950E40E94C80320E030E0BF
:1006260040E251E40E94C40320E030E048E452E492
:0C0636000E9488030E948F02CB010895EF
:1006420097B1907E97B997B18F71982B97B986B170
:10065200806486B9349BFECF86B1806186B924B1AD
:0E06620085B1837090E0982F8827822B089531
:100670009DEC899F912D112496959695969540E134
:10068000949F90011124990F392F330F330F930F3B
:08069000891B822B85BB089534
:10069800092E0394000C11F4882352F0BB0F40F488
:1006A800BF2B11F460FF04C06F5F7F4F8F4F9F4FC8
:0206B8000895A3
:1006BA00A29FB001B39FC001A39F700D811D112499
:0E06CA00911DB29F700D811D1124911D089588
:1006D8000E945D03A59F900DB49F900DA49F800D6F
:0606E800911D112408958C
:1006EE008BE49DE10197F1F700C0000080E00E94CD
:0406FE002103089537
:0E07020086B1806886B986B1876086B9089591
:0E0710005058BB27AA270E94B3010C944C033B
:0E071E0000240A9416161706180609060895F8
:0E072C0000240A9412161306140605060895FA
:0E073A00E894BB2766277727CB0197F908952F
:0C0748008FEF84BB81B3836081BB0895F8
:0C07540097F99F6780E870E060E008956E
:0807600082B3816082BB0895A1
:0807680082B38E7F82BB08956D
:0807700082B3826082BB089590
:0807780082B38D7F82BB08955E
:0807800089B7806189BF08956B
:080788000E94DA000C944C03FE
:080790000E9449010C944C0386
:060798009FEF80EC0895C4
:04079E000C940000B7
:0407A2001EBC0895DC
:0207A6006000F1
:0107A8002D23
:00000001FF
